:02000000CA2E06
:06000600000000000800EC
:0E000C00213083120313FD00FD0B0A280800AB
:10001A000F3083120313FC004730FD00FD0B132839
:0A002A00FC0B132800000000080082
:1000340083160313BD1B21288312881323288312DC
:10004400881783163D1B2928831208132B28831233
:1000540008178316BD1A3128831288123328831295
:10006400881683163D1A3928831208123B288312F6
:100074000816D3183F2807174028071387170320AB
:1000840087138316BD194928831288134B288312BA
:10009400881783163D195128831208135328831295
:1000A40008178316BD185928831288125B288312F7
:1000B400881683163D186128831208126328831258
:1000C4000816D3186728071768280713871703200B
:0E00D4008713D31C6F280D207028062008000B
:1000E20083120313F801F9011030FC00710DF80DB1
:1000F200F90D7408F8027508031C750FF90203184C
:1001020089287408F80775080318750FF907031092
:0A011200F00DF10DFC0B772808003A
:10011C00FB14FB1F9828FF30F300F200F100F000F5
:08012C00FA0DF20CFF3008008F
:100134007B15FB1FA4280130F300F201F101F0014B
:08014400FA0DF20CFF30080077
:08014C00FA1FF2130030080055
:0E015400F201F101F001F801F30100300800A2
:1001620083120313FD01F8017008031900347406A9
:10017200FA00FA1BFD09FB01F41FC128F409F40A75
:10018200F01FC528F009F00A70087404FA00FA1B7F
:10019200E9287408F802F00D700DF80D7408F807DC
:1001A200F00D0630FC00700DF80D74087018F8029E
:1001B200701CF807F00DFC0BD428701CF8077B1894
:1001C200F728FD1F0034F009F00AF809F80A003494
:1001D200F41FF428F01BF1287008F800F001E2285F
:1001E200F001F00A0034F009FB0ACA28F80A740880
:1001F2007802031DE228F801F00AF01FE228FF341A
:020202000800F2
:100204000E3083120313FD00FD0B062900000800C5
:1002140083120313D31083163808BD001A20D31495
:020224000800D0
:1002260083160313BB0105303B02031821293B0843
:100236003A07840020308000BB0A16293B083A079B
:1002460084008001BB033B083A07BC000A30F40077
:10025600F5013808F0003908F10071207808F0003F
:100266007908F1003030F00783163C0884007008E6
:1002760080000A30F400F5013808F0003908F10072
:10028600712070088316B8007108B9000030710635
:10029600031D4F2900307006031D52295429BB0344
:0402A60026290800FD
:1002AA0083120313FB017308031D77080319AC2992
:1002BA0072087606FA007708F3077E30031C69296C
:1002CA00F3020318AF296C29F302031CB22972083E
:1002DA00F8007108FC007008FD00F817F617031003
:1002EA00F201F101F0011830A0007D1C8629740882
:1002FA00F00775080318750FF10776080318760FCB
:10030A00F207F20CF10CF00CF80CFC0CFD0C0310CB
:10031A00A00B7A29F21B9629F80DF00DF10DF20DBA
:10032A00F3037B1B701CA829F81FA829F00A0319DC
:10033A00F10A0319F20A031DA829F20CF10CF00CB8
:10034A00F30A0319AF29FA1FF2130030B429013056
:10035A00AA20B42902308E20B42904309A20000041
:02036A00080089
:10036C00A0017208031DCB297108F2007008F1007E
:10037C00F001A0157208031DCB297108F200F101E0
:10038C00A011201672080319D9292008F302031DA5
:10039C00031CDD290310F21BE129F00DF10DF20D08
:1003AC00F30BD129DD290130FC00AA20E42902300D
:0E03BC00FC009A20E4290430FC00A620080072
:0603CA00FB15FF300800E6
:1003D00083120313FA017308031D7A147708031DAF
:1003E000FA147A080319342A033A0319FF297A18F0
:1003F000FC29F61F322A302AF21F302A322A7208CC
:100400008039FA00F21376088039F6137A06031958
:100410000D2A7A080319302A322A77087302031941
:10042000142A031C282A2C2A7608720203191B2A74
:10043000031C282A2C2A750871020319222A031C7E
:10044000282A2C2A740870020319342A03182C2A2B
:10045000FA080319322A302AFA080319302A322AF4
:100460000314080003100800031403150800080013
:0E047000831203135D088A005C0882000800F6
:10047E00831603133808F2007208F100F20A3908E5
:10048E00F000B90A700884000008F00071088400BA
:10049E00700880007108840000080319572A432A47
:0604AE003808F000080010
:1004B40083120313FB01FA01F9018030F800F10CF7
:1004C400F00C031C6E2A7408F90775080318750FDD
:1004D400FA070318FB0A0310F01F762A7408FA07B8
:1004E40075080318750FFB07FB0CFA0CF90CF80CD4
:1004F400031C612A7B08F3007A08F2007908F100F2
:060504007808F000080079
:10050A00831203137008F8007108F000F101F20178
:10051A00F301FB01FC019630F300FA017008F100C7
:0C052A007808F000F801F201B62108008A
:1005360083160313B001B10183126B088316B20050
:1005460083126C088316B300803083126C06F000A9
:1005560080307002031DB12A00306B020318C42AD2
:1005660001308316B0000030B10083126B08003CE6
:100576008316B20083126C08031C013E8316B30176
:10058600B30283163208B8003308B90083126D0827
:100596008316BA00132106308312EE000030EF00F6
:1005A6006F08003C031DD92A6E08003C0318F42A84
:1005B6006E086D07F20001306E02F0000030031C79
:1005C600013E6F02F10070086D0784000008F0001C
:1005D60072088400700880000130EE02031CEF03ED
:1005E600D32A6D0884002030800083163008310439
:1005F6000319142B8312EE01EF016E086D078400B8
:100606000008203A031D0B2BEE0A0319EF0A002BF4
:100616000130EE02031CEF036E086D0784002D30D7
:040626008000080048
:10062A0083160313B601B70183126B088316B2004F
:10063A0083126C088316B30083126D088316B40004
:10064A0083126E088316B5003508FF3A031D372B4F
:10065A003408FF3A031D372B3308FF3A031D372BA3
:10066A003208FF3A031D432B83126F088316B80022
:10067A003A30B9003F220330F000382D0130B00083
:10068A00B41F532B80303406F0007008B400B00A4F
:10069A0083126F0884002D308000EF0A0030F000CA
:1006AA0083163506031D632B70083406031D632B5E
:1006BA0070083306031D632B3208003A031D6E2BA4
:1006CA0083126F088316B8004330B9003F22F00145
:1006DA00382D3508FF3A031D7C2B3408003A031DD8
:1006EA007C2B3308003A031D7C2B3208003A031D89
:1006FA00882B83126F088316B8003F30B9003F2257
:10070A003008F000382D0030F4000030F5000030D9
:10071A00F6007F30F7003208F0003308F1003408A1
:10072A00F2003508F300E821013003180030F00028
:10073A0070080319BD2B83163208F0003308F10044
:10074A003408F2003508F3000030F4000030F500F8
:10075A002030F6008230F700552170088316B20067
:10076A007108B3007208B4007308B500B703882B88
:10077A0083160030F4000030F5002030F600823095
:10078A00F7003208F0003308F1003408F2003508A7
:10079A00F300E8210130031C0030F000700803194F
:1007AA00F32B83163208F0003308F1003408F20004
:1007BA003508F300CD30F400CC30F5004C30F600AB
:1007CA007B30F700552170088316B2007108B30018
:1007DA007208B4007308B500B70ABD2B8316FF3040
:1007EA003205F800FF303305F9007F303405FA008E
:1007FA0000303505FB007808F4007908F5007A081E
:10080A00F6007B08F700F40DF50DF60DF70D7410E0
:10081A0000303205F00000303305F10000303405B5
:10082A00F200FF303505F3007008B2007108B3001A
:10083A007208B4007308B50074083204F000750831
:10084A003304F10076083404F20077083504F30023
:10085A007008B2007108B3007208B4007308B500DA
:10086A007F303502F0007008B1000130B500700821
:10087A00F4003208F0003308F1003408F2003508B9
:10088A00F30074080319502CF00DF10DF20DF30D5D
:10089A007010FF3E472C7008B2007108B30072084E
:1008AA00B4007308B5003508303EF00083126F08B3
:1008BA00840070088000EF0A803083163706F00043
:1008CA008030013A7002031C732C8030063AF00023
:1008DA00803037067002031C732C7C2C83126F083D
:1008EA0084002E308000EF0A01308316B6000630ED
:1008FA00B1003108003A0319DE2CB5013208F000C4
:10090A003308F1003408F2003508F300F00DF10D58
:10091A00F20DF30D7010F00DF10DF20DF30D7010D4
:10092A003208F00733080318330FF10734080318A5
:10093A00340FF20735080318350FF3077008B200B1
:10094A007108B3007208B4007308B5003208F000E9
:10095A003308F1003408F2003508F300F00DF10D08
:10096A00F20DF30D70107008B2007108B30072082E
:10097A00B4007308B5003508303EF00083126F08E2
:10098A00840070088000EF0A83163608003A031DB7
:10099A00DC2CB7033708003A031DDC2C83126F08DE
:1009AA0084002E308000EF0A01308316B600B103AE
:1009BA007E2CFF3083126F0784000008303A031D33
:1009CA00E82CEF03DE2CFF306F07840000082E3A74
:1009DA00031DF02CEF0383163708003A0319332D51
:1009EA0083126F08840065308000EF0A8030831616
:1009FA003706F0008030003A700203180E2D831279
:100A0A006F0884002D308000EF0A83163708003CF7
:100A1A00B7003708B1008030093AF0008030370655
:100A2A0070020318242D0A30F4003108F000B120B6
:100A3A003030F0076F08840070088000EF0A0A302F
:100A4A00F40083163108F000B1207808F000303045
:100A5A00F0076F08840070088000EF0A83126F089D
:080A6A0084008001F001080086
:100A7200831203139F01C0309F043E09F0007008E7
:100A820083169F051F179F1783126B08F000F00D46
:100A92007010F00D7010F00D701070089F041F148C
:100AA20002211F151F1D572D0000532D1F101E0858
:100AB200F100F00183161E08F0040030F104080072
:100AC200732D803083120313EB00862DC030EB00B0
:100AD200862D9430EB00862DD430EB00862D8030AD
:100AE200EB00862D831203136B08013A0319622D62
:100AF2006B08023A0319672D6B08033A03196A2D32
:100B02006B08043A03196D2D702D6C03F0006B080D
:100B1200F0077008EB0070088316BD001A20D3108E
:100B2200EE016E086D07840000080319A12D6E08FE
:100B32006D07840000088316B8000A21EE0A922D80
:040B4200D3140800C0
:100B460083160313871307130812881208138813D2
:100B560083128713071388130813881208120D20AF
:100B66000D200D20881608168717032087130D20E1
:100B76008717032087130D208717032087130D205F
:100B860008128717032087130D2087170320871362
:100B9600881288178717032087130D2088130816D5
:100BA60087170320871308128717032087130D2042
:100BB60087170320871308168717032087130D202E
:100BC6000812871703208713881708178816081630
:0C0BD6008717032087130D20D31408009C
:100BE200FF3083120313DE00FF30DF00FF30E0002E
:100BF200FF309F01C0309F043E09F0007008831649
:0C0C02009F051F179F1783121F14080086
:100C0E00831203137408003A031D222E7508003A4E
:100C1E00031D222E7608003A031D222E7708003A75
:100C2E00031D222EFF30F000FF30F1007F30F20066
:100C3E00FF30F300BD2E8312031377080319B12E74
:100C4E0073080319B42E720876068039FA00F2176B
:100C5E00F617A0017208F8007108FC007008FD007C
:100C6E007408FD027508031C750FFC027608031C40
:100C7E00760FF802F801FC01FD01031C4D2E031046
:100C8E00F20CF10CF00CF80C0130A0007708F30216
:100C9E00031C572E7E302007F3070318B72E5C2E49
:100CAE007E302007F307031CBA2E1830FA07FD0D0D
:100CBE00FC0DF80DF00DF10DF20DA00D7408F00203
:100CCE007508031C750FF1027608031C760FF202ED
:100CDE00760DA004201C752E7D14802E7408F0074E
:100CEE0075080318750FF10776080318760AF207D0
:100CFE007D10FA031F307A05031D5E2E7B1B7D1CB3
:100D0E00A72E0310F00DF10DF20DA00D7408F002D8
:100D1E007508031C750FF1027608031C760FF2029C
:100D2E00760D20040139FD070318FC0A0319F80A91
:100D3E00031DA72EF80CFC0CFD0CF30A0319B72E9D
:100D4E00FA1FF8137808F2007C08F1007D08F00015
:100D5E000030BC2E0130E521BC2E0230AA20BC2E64
:0E0D6E0004308E20BC2E08309A2000000800B1
:100D7C0038228A110A128000840ADC0A0319DD0A5F
:080D8C00F003031DBE2E080058
:100D9400B827831603138614061586158312531079
:100DA400F125A32501308316BD001A200130EB0084
:100DB4000130EC002630ED0061250230EB000130FB
:100DC400EC002130ED006125061D262F5318EC2E72
:100DD4007414ED2E74108618F12E0310F22E0314E1
:100DE400741CF82E031CF82E7414F92E7410741C41
:100DF400232FB20A0319B30A53143208F00033083C
:100E0400F1003C30F4000030F5005A227008B000C4
:100E14007108B1007008EB007108EC005430ED006B
:100E24009B22023083120313EB000A30EC003430AF
:100E3400ED0061250230EB000A30EC005430ED0087
:100E440061258618262F53100619312FB201B301DC
:100E54000230EB000A30EC004530ED006125EB0177
:100E6400392570088312E5007108E60085220030F8
:100E7400F4000030F5002030F6008130F7005521F1
:100E84000030F400C030F5007F30F6008830F70001
:100E940007267008E1007108E2007208E300730895
:100EA400E4000030F4000030F5002030F600823019
:100EB400F70055217008E7007108E8007208E9009E
:100EC4007308EA007008EB007108EC007208ED008A
:100ED4007308EE00A030EF001523013083120313D2
:100EE400EB000A30EC004B30ED0061250130EB00E3
:0E0EF4000A30EC00A030ED006125E62E802FC4
:100F700021308400323083120313F0008630DC000D
:080F80000730DD00BE26080069
:0A0F0C005234413444343A340034C6
:100F160045344D3446342034283475345434293419
:040F26003A34003425
:040F2A00003400345B
:040F2E000034003457
:0C0F3200203420342034203420340034DB
:080F3E004E3461344E340034DE
:020F46000F3466
:080F480049344E3446340034F4
:040F50003034003405
:0C0F5400203420342034203420340034B9
:100F60002034203420342034203420342034003401
:02400E004A2F37
:00000001FF
